{
  "contractName": "Greeter",
  "abi": [
    {
      "inputs": [],
      "payable": false,
      "stateMutability": "nonpayable",
      "type": "constructor"
    },
    {
      "constant": true,
      "inputs": [],
      "name": "greet",
      "outputs": [
        {
          "internalType": "string",
          "name": "",
          "type": "string"
        }
      ],
      "payable": false,
      "stateMutability": "view",
      "type": "function"
    },
    {
      "constant": false,
      "inputs": [
        {
          "internalType": "string",
          "name": "greeting",
          "type": "string"
        }
      ],
      "name": "setGreeting",
      "outputs": [],
      "payable": false,
      "stateMutability": "nonpayable",
      "type": "function"
    },
    {
      "constant": true,
      "inputs": [],
      "name": "owner",
      "outputs": [
        {
          "internalType": "address",
          "name": "",
          "type": "address"
        }
      ],
      "payable": false,
      "stateMutability": "view",
      "type": "function"
    },
    {
      "constant": false,
      "inputs": [],
      "name": "kill",
      "outputs": [],
      "payable": false,
      "stateMutability": "nonpayable",
      "type": "function"
    },
    {
      "constant": false,
      "inputs": [],
      "name": "fillArray",
      "outputs": [],
      "payable": false,
      "stateMutability": "nonpayable",
      "type": "function"
    },
    {
      "constant": false,
      "inputs": [],
      "name": "setProfile",
      "outputs": [],
      "payable": false,
      "stateMutability": "nonpayable",
      "type": "function"
    },
    {
      "constant": true,
      "inputs": [],
      "name": "getProfile",
      "outputs": [
        {
          "internalType": "string",
          "name": "",
          "type": "string"
        }
      ],
      "payable": false,
      "stateMutability": "view",
      "type": "function"
    },
    {
      "constant": false,
      "inputs": [
        {
          "internalType": "uint256",
          "name": "NameID",
          "type": "uint256"
        }
      ],
      "name": "payGreeter",
      "outputs": [
        {
          "internalType": "uint256",
          "name": "",
          "type": "uint256"
        }
      ],
      "payable": true,
      "stateMutability": "payable",
      "type": "function"
    }
  ],
  "bytecode": "0x608060405234801561001057600080fd5b5033600160006101000a81548173ffffffffffffffffffffffffffffffffffffffff021916908373ffffffffffffffffffffffffffffffffffffffff1602179055506108ff806100616000396000f3fe60806040526004361061007b5760003560e01c8063a41368621161004e578063a413686214610147578063cfae32171461020f578063d6afc9b11461029f578063f460473e1461032f5761007b565b806341c0e1b5146100805780638da5cb5b146100975780639bd65062146100ee5780639bfa18a114610105575b600080fd5b34801561008c57600080fd5b50610095610346565b005b3480156100a357600080fd5b506100ac6103b7565b604051808273ffffffffffffffffffffffffffffffffffffffff1673ffffffffffffffffffffffffffffffffffffffff16815260200191505060405180910390f35b3480156100fa57600080fd5b506101036103e1565b005b6101316004803603602081101561011b57600080fd5b81019080803590602001909291905050506104f9565b6040518082815260200191505060405180910390f35b34801561015357600080fd5b5061020d6004803603602081101561016a57600080fd5b810190808035906020019064010000000081111561018757600080fd5b82018360208201111561019957600080fd5b803590602001918460018302840111640100000000831117156101bb57600080fd5b91908080601f016020809104026020016040519081016040528093929190818152602001838380828437600081840152601f19601f820116905080830192505050505050509192919290505050610503565b005b34801561021b57600080fd5b506102246105e0565b6040518080602001828103825283818151815260200191508051906020019080838360005b83811015610264578082015181840152602081019050610249565b50505050905090810190601f1680156102915780820380516001836020036101000a031916815260200191505b509250505060405180910390f35b3480156102ab57600080fd5b506102b4610682565b6040518080602001828103825283818151815260200191508051906020019080838360005b838110156102f45780820151818401526020810190506102d9565b50505050905090810190601f1680156103215780820380516001836020036101000a031916815260200191505b509250505060405180910390f35b34801561033b57600080fd5b50610344610727565b005b600160009054906101000a900473ffffffffffffffffffffffffffffffffffffffff1673ffffffffffffffffffffffffffffffffffffffff163373ffffffffffffffffffffffffffffffffffffffff1614156103b5573373ffffffffffffffffffffffffffffffffffffffff16ff5b565b6000600160009054906101000a900473ffffffffffffffffffffffffffffffffffffffff16905090565b60405180606001604052806040518060400160405280600781526020017f53756e646565700000000000000000000000000000000000000000000000000081525081526020016040518060400160405280600681526020017f4b6869737479000000000000000000000000000000000000000000000000000081525081526020016040518060400160405280600681526020017f5379646e65790000000000000000000000000000000000000000000000000000815250815250600860008201518160000190805190602001906104b99291906107a5565b5060208201518160010190805190602001906104d69291906107a5565b5060408201518160020190805190602001906104f39291906107a5565b50905050565b6000819050919050565b600160009054906101000a900473ffffffffffffffffffffffffffffffffffffffff1673ffffffffffffffffffffffffffffffffffffffff163373ffffffffffffffffffffffffffffffffffffffff16146105c6576040517f08c379a00000000000000000000000000000000000000000000000000000000081526004018080602001828103825260158152602001807f4f6e6c79204f776e657220697320616c6c6f776564000000000000000000000081525060200191505060405180910390fd5b80600090805190602001906105dc929190610825565b5050565b606060008054600181600116156101000203166002900480601f0160208091040260200160405190810160405280929190818152602001828054600181600116156101000203166002900480156106785780601f1061064d57610100808354040283529160200191610678565b820191906000526020600020905b81548152906001019060200180831161065b57829003601f168201915b5050505050905090565b606060086000018054600181600116156101000203166002900480601f01602080910402602001604051908101604052809291908181526020018280546001816001161561010002031660029004801561071d5780601f106106f25761010080835404028352916020019161071d565b820191906000526020600020905b81548152906001019060200180831161070057829003601f168201915b5050505050905090565b7f5465737431000000000000000000000000000000000000000000000000000000600360006005811061075657fe5b018190555060028060018154018082558091505090600182039060005260206000200160007f546573743200000000000000000000000000000000000000000000000000000090919091505550565b828054600181600116156101000203166002900490600052602060002090601f016020900481019282601f106107e657805160ff1916838001178555610814565b82800160010185558215610814579182015b828111156108135782518255916020019190600101906107f8565b5b50905061082191906108a5565b5090565b828054600181600116156101000203166002900490600052602060002090601f016020900481019282601f1061086657805160ff1916838001178555610894565b82800160010185558215610894579182015b82811115610893578251825591602001919060010190610878565b5b5090506108a191906108a5565b5090565b6108c791905b808211156108c35760008160009055506001016108ab565b5090565b9056fea265627a7a7231582030ad324494cc85de91a962ec70ebcfdbb6bea8ca522b7ef582664d43decf8b5a64736f6c63430005100032",
  "source": "// SPDX-License-Identifier: MIT\r\npragma solidity >=0.4.21 <0.7.0;\r\n\r\ncontract Greeter {\r\n    string private _greeting;\r\n    address private _owner;\r\n    bytes32[] showArray;\r\n    bytes32[5] showFixedArray;\r\n    struct Profile {\r\n        string firstName ;\r\n        string lastName;\r\n        string city;\r\n    }\r\n    Profile contact;\r\n    constructor () public{\r\n        _owner = msg.sender;\r\n    }\r\n    modifier onlyOwner() {\r\n        require(msg.sender == _owner, \"Only Owner is allowed\");\r\n        _;\r\n    }\r\n    function greet() external view returns (string memory ){\r\n        return _greeting;\r\n    }\r\n    function setGreeting(string memory greeting) public  onlyOwner {\r\n        _greeting = greeting;\r\n\r\n    }\r\n    function owner() public view returns(address){\r\n        return _owner;\r\n    }\r\n    function kill() public\r\n    {\r\n        if (msg.sender == _owner)\r\n        selfdestruct(msg.sender);\r\n    }\r\n    function fillArray() public {\r\n        showFixedArray[0] = \"Test1\";\r\n        showArray.push(\"Test2\");\r\n        return;\r\n    }\r\n    function setProfile() public {\r\n      contact = Profile('Sundeep', 'Khisty', 'Sydney');\r\n    }\r\n    function getProfile() public view returns (string memory) {\r\n        return contact.firstName;\r\n    }\r\nfunction payGreeter(uint256 NameID) public payable returns (uint256){\r\n    return NameID;\r\n}\r\n}\r\n",
  "sourcePath": "C:/GreeterDapp/contracts/Greeter.sol",
  "compiler": {
    "name": "solc",
    "version": "0.5.16+commit.9c3226ce.Emscripten.clang"
  },
  "schemaVersion": "3.2.2",
  "updatedAt": "2020-07-20T09:21:34.527Z",
  "devdoc": {
    "methods": {}
  },
  "userdoc": {
    "methods": {}
  }
}